:020000042000DA
:1000000008040120A9010020FF010020F7010020C1
:10001000FB010020F1010020F90300200000000096
:1000200000000000000000000000000003020020AB
:10003000F50100200000000001020020ED02002078
:10004000C3010020C3010020C3010020C301002020
:10005000C3010020C3010020C3010020C301002010
:10006000C3010020C3010020C3010020C301002000
:10007000C3010020C3010020C3010020C3010020F0
:10008000C3010020C3010020C301002000000000C4
:10009000000000000000000000000000C30100207C
:1000A000C3010020C3010020C3010020C3010020C0
:1000B000C3010020C3010020C3010020C3010020B0
:1000C000C3010020C3010020C3010020C3010020A0
:1000D000C3010020C3010020C30100200000000074
:1000E000C3010020C3010020C30100200000000064
:1000F000000000000000000000000000C30100201C
:1001000000000000C3010020C3010020C301002043
:1001100000000000000000000000000000000000DF
:10012000C3010020C3010020C3010020C30100203F
:10013000C3010020000000000000000000000000DB
:10014000000000000000000000000000C3010020CB
:10015000C3010020C3010020C3010020C30100200F
:10016000C3010020C30100200000000000000000C7
:10017000000000000000000000000000000000007F
:1001800000000000C301002000000000000000008B
:10019000C3010020DFF80CD000F018F80048004739
:1001A00081040020080401200648804706480047D3
:1001B000FEE7FEE7FEE7FEE7FEE7FEE7FEE7FEE717
:1001C000FEE7FEE7F102002095010020064C074DF6
:1001D00006E0E06840F0010394E807009847103417
:1001E000AC42F6D3FFF7DAFFA8040020C8040020D1
:1001F00000BFFEE7704700BFFEE700BFFEE77047A5
:10020000704770470CB5002001900090334800689B
:1002100040F480303149086000BF3048006800F485
:10022000003000900198401C0190009818B9019886
:10023000B0F5A04FF1D12948006800F4003010B1AA
:100240000120009001E0002000900098012844D196
:1002500022484030006840F080502049403108601A
:100260001F48006840F440401D4908601B480830A2
:1002700000681A49083108600846006808600846A6
:10028000006840F4805008601648091F0860081F85
:10029000006840F08070091F086000BF0F480068C8
:1002A00000F000700028F9D040F202700E4908609A
:1002B0000A480830006820F0030008490831086047
:1002C0000846006840F00200086000BF034808309C
:1002D000006800F00C000828F8D10CBD003802407E
:1002E0000070004008544107003C02407047000085
:1002F00010B51548006840F47000134908601348B1
:10030000006840F001001149086000200F490831E1
:1003100008600E4800680E4908400C4908600D4806
:10032000091D0860081F006820F48020091F08606C
:10033000002006490C310860FFF764FF4FF00050C1
:1003400001498039086010BD88ED00E000380240A6
:10035000FFFFF6FE1030002400BF0549097801F0C8
:1003600080010029F9D0C0F30801014A51607047AB
:10037000001001401D48006840F001001B49086062
:100380001A481430006840F0100018491431086011
:100390001748406A40F070001549486208460068F6
:1003A00040F4002008600846406820F400204860BF
:1003B0000846806840F4002088600846C06840F421
:1003C0008020C8600B48806840F2D9210843094961
:1003D00088600846C06842F20C0108430549C860BD
:1003E0000846C06940F00100C861704730380240DB
:1003F000000002400010014000BFFEE7014A024930
:1004000000F013B8710400200000012002E008C8C9
:10041000121F08C1002AFAD170477047002001E07E
:1004200001C1121F002AFBD170472DE9F041164689
:100430000F460446002503E03946B047641C6D1C96
:1004400020780028F8D12846BDE8F08170B5044630
:10045000064920680840B0F1005F05D16568206852
:1004600080F3088800BFA84770BD00000000FE2F81
:1004700010B503460C46D8B2FFF76EFF10BD000062
:10048000FFF778FF04A0FFF7B9FF4FF00060FFF718
:10049000DDFF00BFFEE700000D0A48656C6C6F20B1
:1004A000776F726C640D0A00C80400200000012000
:1004B000040000000C040020CC04002004000120F3
:0C04C000040400001C04002000000000E8
:040000052000019541
:00000001FF
