:020000040800F2
:10000000600600200D020008730300086B0300085F
:100010006F030008C7020008E904000800000000A0
:10002000000000000000000000000000990300082C
:10003000CB020008000000007503000861040008FE
:1000400027020008270200082702000827020008EC
:1000500027020008270200082702000827020008DC
:1000600027020008270200082702000827020008CC
:1000700027020008270200082702000827020008BC
:1000800027020008270200082702000827020008AC
:10009000270200082702000827020008270200089C
:1000A000270200082702000827020008270200088C
:1000B000270200082702000827020008270200087C
:1000C000270200082702000827020008270200086C
:1000D000270200082702000827020008270200085C
:1000E000270200082702000827020008270200084C
:1000F000270200082702000827020008270200083C
:1001000000000000000000000000000027020008BE
:10011000270200082702000827020008270200081B
:10012000270200082702000827020008270200080B
:10013000270200082702000800000000000000005D
:10014000270200082702000827020008000000001C
:10015000000000000000000000000000000000009F
:10016000000000000000000027020008270200082D
:10017000270200080000000000000000000000004E
:10018000000000002702000800F002F800F02EF83E
:100190000AA090E8000C82448344AAF10107DA45E2
:1001A00001D100F023F8AFF2090EBAE80F0013F006
:1001B000010F18BFFB1A43F001031847B0030000FA
:1001C000C00300000023002400250026103A28BFA9
:1001D00078C1FBD8520728BF30C148BF0B607047B9
:1001E0001FB500F0BDF91FBD10B510BD00F031F80E
:1001F0001146FFF7F5FF00F079F900F04FF803B46E
:10020000FFF7F2FF03BC00F057F8000009488047F1
:1002100009480047FEE7FEE7FEE7FEE7FEE7FEE7E8
:10022000FEE7FEE7FEE7FEE704480549054A064B00
:100230007047000065040008890100086000002084
:1002400060060020600200206002002070477047B6
:100250007047754600F02CF8AE46050069465346D7
:1002600020F00700854618B020B5FFF7DDFFBDE898
:1002700020404FF000064FF000074FF000084FF00D
:10028000000B21F00701AC46ACE8C009ACE8C0099E
:10029000ACE8C009ACE8C0098D46704710B504460B
:1002A000AFF300802046BDE81040FFF7A8BF000074
:1002B000004870470000002001491820ABBEFEE74F
:1002C00026000200704700BFFEE77047F0B50A46FF
:1002D000002100240025002300BF3FE0012606FA8C
:1002E00001F4166806EA0405A54236D11679012EF6
:1002F00002D01679022E18D186684FEA410C0327E6
:1003000007FA0CF7BE43866056794F00BE408768F7
:100310003E438660868801278F40BE43868087885B
:1003200096798E40B6B23743878006684FEA410C13
:10033000032707FA0CF7BE43066016794F00BE404C
:1003400007683E430660C3684F000326BE40B343C0
:10035000D6794F00BE403343C360491C1029BDD33A
:10036000F0BD018570478161704700BFFEE700BFA7
:10037000FEE770477047000029B1064A5269024300
:10038000044B5A6104E0034A52698243014B5A61AB
:100390007047000000100240704700000CB50020BC
:1003A000019000902C48006840F480302A49086091
:1003B00000BF2948006800F4003000900198401CFC
:1003C0000190009818B90198B0F5A04FF1D12248DA
:1003D000006800F4003010B10120009001E000201E
:1003E00000900098012836D112201C4908601A4854
:1003F00040681949486008464068486008464068B7
:1004000040F4806048600846406820F47C104860F2
:100410000846406840F4E81048600846006840F02C
:100420008070086000BF0C48006800F00070002871
:10043000F9D00948406820F00300074948600846A1
:10044000406840F00200486000BF0348406800F088
:100450000C000828F9D10CBD001002400020024019
:100460007047000010B51B48006840F4700019493F
:1004700008601948006840F0010017490860084604
:100480004068164908401449486008460068144905
:100490000840114908600846006820F48020086080
:1004A0000846406820F4FE0048600846C06A20F014
:1004B0000F00C8620846006B0A49084006490863F5
:1004C00000208860FFF76AFF4FF000600149803923
:1004D000086010BD88ED00E0001002400CC07FF8FD
:1004E000FFFFF6FECCFC00FF00BFFEE71CB51A4C78
:1004F0000121C804FFF740FF4FF400500090012095
:100500008DF8040000208DF8060003208DF805000A
:1005100000208DF8070069461048FFF7D7FE4FF41A
:1005200000510E48FFF71DFF15E000BF201EA4F18B
:100530000104FBD14FF400510848FFF712FF064CAD
:1005400000BF201EA4F10104FBD14FF40051034869
:10055000FFF709FF004CE8E720A10700000800486A
:100560004FF04070E1EE100A704700007C05000873
:0C0570000000002060060000C40100082C
:040000050800018965
:00000001FF
